:100000000C9462000C948A000C948A000C948A0070
:100010000C948A000C948A000C948A000C948A0038
:100020000C948A000C948A000C948A000C94D203DD
:100030000C948A000C948A000C948A000C948A0018
:100040000C9430030C948A000C94A0030C947A0353
:100050000C948A000C948A000C948A000C948A00F8
:100060000C948A000C948A000000000023002600F3
:10007000290000000000240027002A0000000000E2
:10008000250028002B0004040404040404040202D4
:100090000202020203030303030301020408102007
:1000A0004080010204081020010204081020000012
:1000B0000008000201000003040700000000000027
:1000C0000000D80411241FBECFEFD8E0DEBFCDBFA3
:1000D00021E0ACE1B1E001C01D92AB3EB207E1F717
:1000E00011E0A0E0B1E0E2ECF0E102C005900D9279
:1000F000AC31B107D9F710E0C2E6D0E004C02197D7
:10010000FE010E94C706C136D107C9F70E94360515
:100110000C945F080C940000CF92DF92EF92FF9254
:10012000DC01A03282E0B8070CF03EC0B7FD06C08B
:10013000A53BB1052CF0A4EBB0E002C0A0E0B0E01C
:100140008091E90128E830E06901C81AD10887FDEB
:10015000D394CC0CDD1CCC0CDD1C0D2C000CEE085B
:10016000FF088091EA0128E532E0281B310987FD6C
:100170003395220F331F220F331FA901330F660B54
:10018000770B9A01AB012C193D094E095F090E94BA
:10019000260824EB30E040E050E00E94FC07C20E4D
:1001A000D31EE41EF51ED6019091E8019C3098F50F
:1001B0008091E90148E850E0481B510987FD5395BB
:1001C000440F551F440F551FA417B5078CF080919D
:1001D000EA0128E532E0281B310987FD3395220F1B
:1001E000331F220F331FAD012A173B070CF4A9015F
:1001F00042505109440F551F2FB7F894892F90E0B2
:10020000FC01EE0FFF1F8E0F9F1FFC01ED53FE4FF1
:10021000528341832FBFFF90EF90DF90CF900895DE
:1002200090E0FC01E255FF4F3491FC01E656FF4F90
:100230002491FC01EA57FF4FE491EE2309F43BC0FF
:10024000332339F1333091F038F43130A9F03230C2
:1002500001F584B58F7D12C0373091F03830A1F0B0
:100260003430B9F4809180008F7D03C0809180008C
:100270008F77809380000DC084B58F7784BD09C0CF
:100280008091B0008F7703C08091B0008F7D809304
:10029000B000F0E0EE0FFF1FE458FF4FA591B491BE
:1002A0008FB7F894EC91611103C020952E2301C003
:1002B0002E2B2C938FBF0895CF93DF9390E0FC01FA
:1002C000E656FF4F2491FC01EA57FF4F84918823A3
:1002D00061F190E0880F991FFC01EE58FF4FC59126
:1002E000D491FC01E458FF4FA591B491611109C06C
:1002F0009FB7F8948881209582238883EC912E23E0
:100300000BC0623061F49FB7F8943881822F8095DA
:1003100083238883EC912E2B2C939FBF06C08FB72D
:10032000F894E8812E2B28838FBFDF91CF91089519
:100330003FB7F8948091220190912301A09124016C
:10034000B091250126B5A89B05C02F3F19F0019655
:10035000A11DB11D3FBFBA2FA92F982F8827820F4B
:10036000911DA11DB11DBC01CD0142E0660F771F9B
:10037000881F991F4A95D1F70895CF92DF92EF9287
:10038000FF920F931F93CF93DF936C017A018B0140
:10039000C0E0D0E0CE15DF0589F0D8016D918D0168
:1003A000D601ED91FC910190F081E02DC6010995F7
:1003B000892B11F47E0102C02196ECCFC701DF9199
:1003C000CF911F910F91FF90EF90DF90CF90089504
:1003D000FC01918D828D981761F0828DDF01A80F4D
:1003E000B11D5D968C91928D9F5F9F73928F90E06F
:1003F00008958FEF9FEF0895FC01918D828D9817DE
:1004000031F0828DE80FF11D858D90E008958FEF1A
:100410009FEF0895FC01918D228D892F90E0805CE3
:100420009F4F821B91098F739927089586E291E06F
:100430000E940A0221E0892B09F420E0822F08950E
:10044000FC01848DDF01A80FB11DA35ABF4F2C9171
:10045000848D90E001968F739927848FA689B78940
:100460002C93A089B1898C9180648C93938D848D19
:10047000981306C00288F389E02D80818F7D8083E8
:100480000895EF92FF920F931F93CF93DF93EC01A8
:1004900081E0888F9B8D8C8D981305C0E889F98940
:1004A000808185FD24C0F62E0B8D10E00F5F1F4F5D
:1004B0000F731127E02E8C8DE8120CC00FB607FCCD
:1004C000FACFE889F989808185FFF5CFCE010E94B6
:1004D0002002F1CF8B8DFE01E80FF11DE35AFF4F93
:1004E000F0820B8FEA89FB898081806207C0EE89E8
:1004F000FF896083E889F98980818064808381E055
:1005000090E0DF91CF911F910F91FF90EF900895B0
:10051000CF93DF93EC01888D8823C9F0EA89FB89AA
:10052000808185FD05C0A889B9898C9186FD0FC0A1
:100530000FB607FCF5CF808185FFF2CFA889B98976
:100540008C9185FFEDCFCE010E942002E7CFDF9195
:10055000CF91089580E090E0892B29F00E94160247
:1005600081110C9400000895009769F0FC0101903E
:100570000020E9F73197AF01481B590BBC0186E217
:1005800091E00C94BD0180E090E008958F929F92DD
:10059000AF92BF920F931F93CF93DF93CDB7DEB788
:1005A000A1970FB6F894DEBF0FBECDBF19A242309F
:1005B00008F44AE08E010F5D1F4F842E912CA12C70
:1005C000B12CA50194010E942E08E62FB901CA01A1
:1005D00001501109EA3014F4E05D01C0E95CD80172
:1005E000EC93232B242B252B61F7C8010E94B40226
:1005F000A1960FB6F894DEBF0FBECDBFDF91CF91AD
:100600001F910F91BF90AF909F908F900895CF92C0
:10061000DF92EF92FF92CF93DF936B017C01E09129
:100620002601F09127010190F081E02D6DE286E234
:1006300091E00995EC0166277727CB016C197D09BC
:100640008E099F094AE00E94C6028C0F9D1FDF9110
:10065000CF91FF90EF90DF90CF9008950E94F70721
:100660001F920F920FB60F9211242F933F938F93E7
:100670009F93AF93BF9380911E0190911F01A09112
:100680002001B091210130911D0123E0230F2D376E
:1006900020F40196A11DB11D05C026E8230F029686
:1006A000A11DB11D20931D0180931E0190931F0178
:1006B000A0932001B0932101809122019091230108
:1006C000A0912401B09125010196A11DB11D809337
:1006D000220190932301A0932401B0932501BF919F
:1006E000AF919F918F913F912F910F900FBE0F90DF
:1006F0001F9018951F920F920FB60F9211242F93EF
:100700003F934F935F936F937F938F939F93AF9399
:10071000BF93EF93FF9386E291E00E942002FF9146
:10072000EF91BF91AF919F918F917F916F915F9169
:100730004F913F912F910F900FBE0F901F901895E2
:100740001F920F920FB60F9211242F938F939F93A6
:10075000EF93FF93E0913601F09137018081E091B2
:100760003C01F0913D0182FD12C0908180913F01DA
:100770008F5F8F7320914001821751F0E0913F010C
:10078000F0E0EA5DFE4F958F80933F0101C08081CC
:10079000FF91EF919F918F912F910F900FBE0F902E
:1007A0001F9018951F920F920FB60F9211242F933E
:1007B0003F934F935F936F937F938F939F93AF93E9
:1007C000BF93EF93FF9380911C0187FF05C01092A8
:1007D0008500109284001BC020911C01022E000C89
:1007E000330B8091E70190E02817390784F480915A
:1007F0001C01082E000C990BFC01EE0FFF1F8E0F41
:100800009F1FFC01ED53FE4F808186FD15C0809136
:100810001C018F5F80931C0120911C01022E000C93
:10082000330B8091E70190E028173907C4F48091D9
:100830001C018C3064F113C080911C01082E000C47
:10084000990BFC01EE0FFF1F8E0F9F1FFC01ED5354
:10085000FE4F808160E08F730E941001D8CF80919D
:10086000840090918500049680349C4918F480E4BB
:100870009CE905C080918400909185000496909336
:100880008900809388008FEF80931C013BC02091EA
:1008900084003091850080911C01082E000C990B7A
:1008A000FC01EE0FFF1F8E0F9F1FFC01ED53FE4F4B
:1008B00081819281820F931F909389008093880099
:1008C00080911C01082E000C990BFC01EE0FFF1FFC
:1008D0008E0F9F1FFC01ED53FE4F808186FF12C0DB
:1008E00080911C01082E000C990BFC01EE0FFF1FDC
:1008F0008E0F9F1FFC01ED53FE4F808161E08F73CF
:100900000E941001FF91EF91BF91AF919F918F9144
:100910007F916F915F914F913F912F910F900FBEFB
:100920000F901F901895CF92DF92EF92FF920F9346
:100930001F93E82FF92F05C0015011092109310932
:1009400061F1908196239417B9F305C00150110904
:100950002109310911F1908196239413F7CFC12C0D
:10096000D12CE12CF12C0AC08FEFC81AD80AE80A62
:10097000F80A0C151D052E053F0579F080818623A8
:10098000841791F36C2D7D2D8E2D9F2D1F910F912E
:10099000FF90EF90DF90CF90089560E070E080E0EE
:1009A00090E01F910F91FF90EF90DF90CF9008950E
:1009B000109229011092280188EE93E0A0E0B0E0A7
:1009C00080932A0190932B01A0932C01B0932D01C9
:1009D00088E091E0909327018093260185EC90E0D8
:1009E000909333018093320184EC90E09093350131
:1009F0008093340180EC90E090933701809336012E
:100A000081EC90E0909339018093380182EC90E082
:100A100090933B0180933A0186EC90E090933D01E6
:100A200080933C0110923F011092400110924101CD
:100A3000109242018091E7018C30A0F491E0980F70
:100A40009093E7018093E80190E0FC01EE0FFF1F17
:100A50008E0F9F1FFC01ED53FE4F88EB9BE09283AE
:100A6000818308958FEF8093E8010895789484B589
:100A7000826084BD84B5816084BD85B5826085BD9A
:100A800085B5816085BD80916E00816080936E0028
:100A9000109281008091810082608093810080911A
:100AA00081008160809381008091800081608093CB
:100AB00080008091B10084608093B1008091B0008B
:100AC00081608093B00080917A00846080937A0086
:100AD00080917A00826080937A0080917A008160B0
:100AE00080937A0080917A00806880937A001092D7
:100AF000C10061E085E00E945C0160E086E00E9448
:100B00005C018091E8018C3008F053C061E089E01D
:100B10000E945C018091E801E82FF0E09F01220F24
:100B2000331FE20FF31FED53FE4F9081907C9960CD
:100B3000908398E89093E9019BE29093EA016CE03E
:100B40000E94BB062CE0829FB001112440E050E0DF
:100B50009A01260F371FF901EE0FFF1F2E0F3F1FBF
:100B6000F901ED53FE4F908196FD16C04F5F5F4F28
:100B70004C30510569F781110FC01092800082E05E
:100B8000809381001092850010928400B19A809128
:100B90006F00826080936F00E091E801F0E0CF0188
:100BA000880F991FE80FF91FED53FE4F8081806475
:100BB0008083C3E0D0E020EA222E20E0322EE091B4
:100BC0003601F091370182E08083E0913201F091AB
:100BD00033011082E0913401F09135019FEC908354
:100BE00010923E01E0913A01F0913B0126E0208312
:100BF000E0913801F0913901808180618083E0913A
:100C00003801F0913901808188608083E09138015A
:100C1000F0913901808180688083E0913801F09102
:100C2000390180818F7D808380E090E00E948C007C
:100C3000C12CD12C7601C6010E948C000E94980123
:100C40004B015C0194EF492E55245394612C712C77
:100C50000E949801DC01CB0188199909AA09BB09F6
:100C6000883E9340A105B10558F081E0481A51082B
:100C70006108710898EE890E93E0991EA11CB11CC1
:100C8000411451046104710419F760E085E00E9489
:100C90001001CE010197F1F761E085E00E9410019B
:100CA00083E290E00197F1F760E085E00E94100197
:100CB000F1016491ECE8F0E08491E82FF0E0EE0FB0
:100CC000FF1FE859FF4F8591949100E412E42FE053
:100CD00030E0462F0E94930461157105810591054E
:100CE00049F0DC01CB010196A11DB11DBC01CD0174
:100CF0009F7003C060E070E0CB010E94FC0626E913
:100D000033E44BE05DE30E94620720E030E040E026
:100D10005FE30E9462070E94CD062B013C0184E143
:100D200091E00E94B40277FE05C0C301B2010E94A7
:100D3000070305C04AE0C301B2010E94C60286E172
:100D400091E00E94B4024AE0C701B6010E94C602C7
:100D500088E191E00E94B402F5E0CF0ED11CE11CC5
:100D6000F11C24EBC216D104E104F10409F063CFB5
:100D70000E94AA0224CF991B79E004C0991F9617FC
:100D800008F0961B881F7A95C9F780950895EE0F95
:100D9000FF1F0590F491E02D09940E94410788F00F
:100DA0009F5798F0B92F9927B751B0F0E1F0660F2F
:100DB000771F881F991F1AF0BA95C9F714C0B13070
:100DC00091F00E945B07B1E008950C945B07672FD8
:100DD000782F8827B85F39F0B93FCCF3869577959F
:100DE0006795B395D9F73EF4909580957095619588
:100DF0007F4F8F4F9F4F0895E89409C097FB3EF4B3
:100E000090958095709561957F4F8F4F9F4F992357
:100E1000A9F0F92F96E9BB279395F69587957795D5
:100E20006795B795F111F8CFFAF4BB0F11F460FF95
:100E30001BC06F5F7F4F8F4F9F4F16C0882311F0ED
:100E400096E911C0772321F09EE8872F762F05C001
:100E5000662371F096E8862F70E060E02AF09A959C
:100E6000660F771F881FDAF7880F9695879597F991
:100E7000089557FD9058440F551F59F05F3F71F08A
:100E80004795880F97FB991F61F09F3F79F08795F1
:100E90000895121613061406551FF2CF4695F1DF7A
:100EA00008C0161617061806991FF1CF869571050A
:100EB000610508940895E894BB2766277727CB013E
:100EC00097F908950E9475070C94E6070E94D807C9
:100ED00038F00E94DF0720F0952311F00C94CF0723
:100EE0000C94D50711240C945C070E94390770F309
:100EF000959FC1F3950F50E0551F629FF001729FBF
:100F0000BB27F00DB11D639FAA27F00DB11DAA1FCD
:100F1000649F6627B00DA11D661F829F2227B00D1A
:100F2000A11D621F739FB00DA11D621F839FA00DA5
:100F3000611D221F749F3327A00D611D231F849FF5
:100F4000600D211D822F762F6A2F11249F5750404C
:100F50009AF0F1F088234AF0EE0FFF1FBB1F661FC7
:100F6000771F881F91505040A9F79E3F510580F090
:100F70000C94CF070C945C075F3FE4F3983ED4F3E6
:100F8000869577956795B795F795E7959F5FC1F734
:100F9000FE2B880F911D9695879597F9089597F9DF
:100FA0009F6780E870E060E008959FEF80EC08950F
:100FB00000240A9416161706180609060895002438
:100FC0000A9412161306140605060895092E0394B2
:100FD000000C11F4882352F0BB0F40F4BF2B11F426
:100FE00060FF04C06F5F7F4F8F4F9F4F089581E078
:100FF00090E0F8940C945F08052E97FB1EF4009483
:101000000E94130857FD07D00E942E0807FC03D04A
:101010004EF40C94130850954095309521953F4F10
:101020004F4F5F4F089590958095709561957F4FD4
:101030008F4F9F4F08950E945008A59F900DB49F19
:10104000900DA49F800D911D11240895B7FF0C945D
:101050001B080E941B08821B930B0895A1E21A2E05
:10106000AA1BBB1BFD010DC0AA1FBB1FEE1FFF1F4C
:10107000A217B307E407F50720F0A21BB30BE40B9C
:10108000F50B661F771F881F991F1A9469F76095E3
:101090007095809590959B01AC01BD01CF0108959D
:1010A000A29FB001B39FC001A39F700D811D1124A9
:1010B000911DB29F700D811D1124911D0895F8940A
:0210C000FFCF60
:1010C20001000000000000004102BD010A02E80127
:0C10D200FC01880224007C00240A0000BD
:00000001FF
